{
  "blockHeight": 30122,
  "blockHash": "c47c0d3c36cc6161815881f364938ee5bec866fe13065bbdd60b9e42dc04ae97",
  "blockTime": 1569960493,
  "blockTxs": [
    "6936fe6328b931c4e0ae253aa7a5c456a28907d4bd51135e2a42995f98ec6639",
    "9f2207e5aa19221aa7d2c8baa6c4d2db73fcca6f6ee73d1fc8c39be55902dd3a"
  ],
  "txDetails": {
    "9f2207e5aa19221aa7d2c8baa6c4d2db73fcca6f6ee73d1fc8c39be55902dd3a": {
      "hex": "010000000130bb74dca80f871a98532c0f8b70253d2fd61d359c7849f1258fca34ddc22d47010000004847304402204d6d6b4377ad7c0c2fc98f558b1092cf5ad819ef023349e16f401d13e869533f0220020d7a7d7f9be8d92c0013b5cee76704e9dac7ad3309da3e816e41fd0e0f53ba01ffffffff04000000000000000000c0297ce63a0000002321028fec09cc9bd4f032e16444f7a03da3682e7149dce5b325fb00c202ba7a2556fdac0065cd1d000000001976a914e0e2d1cf73cd5793add5ac6731b2cd2a6281aa1e88ac80f0fa02000000001976a914bb1f665d18303a04492b15e5a53b556b88b4830d88ac00000000",
      "txid": "9f2207e5aa19221aa7d2c8baa6c4d2db73fcca6f6ee73d1fc8c39be55902dd3a",
      "version": 1,
      "locktime": 0,
      "vin": [
       {
          "txid": "472dc2dd34ca8f25f149789c351dd62f3d25708b0f2c53981a870fa8dc74bb30",
          "vout": 1,
          "scriptSig": {
            "asm": "304402204d6d6b4377ad7c0c2fc98f558b1092cf5ad819ef023349e16f401d13e869533f0220020d7a7d7f9be8d92c0013b5cee76704e9dac7ad3309da3e816e41fd0e0f53ba01",
            "hex": "47304402204d6d6b4377ad7c0c2fc98f558b1092cf5ad819ef023349e16f401d13e869533f0220020d7a7d7f9be8d92c0013b5cee76704e9dac7ad3309da3e816e41fd0e0f53ba01"
           },
          "sequence": 4294967295
       }
      ],
      "vout": [
       {
        "value": 0.00000000,
        "n": 0,
        "scriptPubKey": {
          "asm": "",
          "hex": "",
          "type": "nonstandard"
         }
       },
       {
         "value": 2529.75000000,
         "n": 1,
         "scriptPubKey": {
           "asm": "028fec09cc9bd4f032e16444f7a03da3682e7149dce5b325fb00c202ba7a2556fd OP_CHECKSIG",
           "hex": "21028fec09cc9bd4f032e16444f7a03da3682e7149dce5b325fb00c202ba7a2556fdac",
           "reqSigs": 1,
           "type": "pubkey",
           "addresses": [
              "zE2yhEkNt5mLrF3FWTBoAV6oW9NiBrhvrY"
            ]
         }
       },
       {
          "value": 5.00000000,
          "n": 2,
          "scriptPubKey": {
            "asm": "OP_DUP OP_HASH160 e0e2d1cf73cd5793add5ac6731b2cd2a6281aa1e OP_EQUALVERIFY OP_CHECKSIG",
            "hex": "76a914e0e2d1cf73cd5793add5ac6731b2cd2a6281aa1e88ac",
            "reqSigs": 1,
            "type": "pubkeyhash",
            "addresses": [
              "zVVju6CGprWasvPAajRSuMiaNAu36jCB5x"
            ]
          }
       },
        {
         "value": 0.50000000,
         "n": 3,
         "scriptPubKey": {
           "asm": "OP_DUP OP_HASH160 bb1f665d18303a04492b15e5a53b556b88b4830d OP_EQUALVERIFY OP_CHECKSIG",
           "hex": "76a914bb1f665d18303a04492b15e5a53b556b88b4830d88ac",
           "reqSigs": 1,
           "type": "pubkeyhash",
           "addresses": [
              "zS44nzYNkZUWfV1TVVgUqJTeHqSjuPjbsi"
            ]
         }
       }
    ],
    "blockhash": "c47c0d3c36cc6161815881f364938ee5bec866fe13065bbdd60b9e42dc04ae97",
    "confirmations": 4440,
    "time": 1569960493,
    "blocktime": 1569960493
    }
  }
}
