{
    "connectBlocks": {
        "syncRanges": [
            {"lower": 24706, "upper": 24726}
        ],
        "blocks": {
            "30900": {
                "height": 24706,
                "hash": "495ba880e71e4157d810c0f1eab4bbc314226f1b8bab62eaf668f8a0c6143608",
                "noTxs": 2,
                "txDetails": [
                    {
                        "hex": "01000000010000000000000000000000000000000000000000000000000000000000000000ffffffff050282600101ffffffff0100000000000000000000000000",
                        "txid": "0b9777b77e1e1f44c241c9779b00a5db93ef6a9afe5b4e83a852cbc35204613f",
                        "version": 1,
                        "vin": [
                            {
                                "coinbase": "0282600101",
                                "sequence": 4294967295
                            }
                        ],
                        "vout": [
                            {
                                "value": 0.00000000,
                                "n": 0,
                                "scriptPubKey": {
                                    "hex": ""
                                }
                            }
                        ],
                        "time": 1569631839,
                        "blocktime": 1569631839
                    },
                    {
                        "hex": "0100000001756bd056f23aa4e9dd8ad1dbb1c69eb57a6b388b9c5ea5cc187965c7bec52f74010000004847304402201ad3e206320d43d9355ea26fe254e40005819a1dc74a731b8848b8cbc03967c00220785dba0de373d2d835f0784429919875c83b6a492852eb15d223d942f8936f7d01ffffffff040000000000000000000051785e5a0000002321030e1adb3a8d8296767becc88af623c9b52a87adbb93c8475fd1d4016572d9936fac0065cd1d000000001976a9148de50c8f981378fba391f23986b051105f9d549188ac80f0fa02000000001976a914bb1f665d18303a04492b15e5a53b556b88b4830d88ac00000000",
                        "txid": "4cd6cd590c71870597830c98e38df8bcf734fdbdbc4f9b255b7f6024772b9808",
                        "version": 1,
                        "vin": [
                            {
                                "txid": "742fc5bec7657918cca55e9c8b386b7ab59ec6b1dbd18adde9a43af256d06b75",
                                "vout": 1,
                                "scriptSig": {
                                    "hex":  "47304402201ad3e206320d43d9355ea26fe254e40005819a1dc74a731b8848b8cbc03967c00220785dba0de373d2d835f0784429919875c83b6a492852eb15d223d942f8936f7d01"
                                },
                                "sequence": 4294967295
                            }
                        ],
                        "vout": [
                            {
                                "value": 0.00000000,
                                "n": 0,
                                "scriptPubKey": {
                                    "hex": ""
                                }
                            },
                            {
                                "value": 3881.32,
                                "n": 1,
                                "scriptPubKey": {
                                    "hex": "21030e1adb3a8d8296767becc88af623c9b52a87adbb93c8475fd1d4016572d9936fac"
                                }
                            },
                            {
                                "value": 5,
                                "n": 2,
                                "scriptPubKey": {
                                    "hex": "76a9148de50c8f981378fba391f23986b051105f9d549188ac"
                                }
                            },
                            {
                                "value": 0.5,
                                "n": 3,
                                "scriptPubKey": {
                                    "hex": "76a914bb1f665d18303a04492b15e5a53b556b88b4830d88ac"
                                }
                            },
                        ],
                        "time": 1569631839,
                        "blocktime": 1569631839
                    }
                ]
            }
        }
    }
}
