{
    "connectBlocks": {
        "syncRanges": [
            {"lower": 24706, "upper": 24726}
        ],
        "blocks": {
            "30900": {
                "height": 30900,
                "hash": "dd085b37f9cf4365250f3eb219a222abf32b69d8bb130f03ee154486397b5aa0",
                "noTxs": 2,
                "txDetails": [
                    {
                        "hex": "01000000010000000000000000000000000000000000000000000000000000000000000000ffffffff0502b4780101ffffffff0100000000000000000000000000",
                        "txid": "8179dbb9b7edc68fcb0c035fa893b1dc9f635641326673dcfdc528a9cce27e4d",
                        "version": 1,
                        "vin": [
                            {
                                "coinbase": "02b4780101",
                                "sequence": 4294967295
                            }
                        ],
                        "vout": [
                            {
                                "value": 0.00000000,
                                "n": 0,
                                "scriptPubKey": {
                                    "hex": ""
                                }
                            }
                        ],
                        "time": 1570007864,
                        "blocktime": 1570007864
                    },
                    {
                        "hex": "01000000013b125a2225323dd79017df5282748566f36b3f11e52d10d16a0013d8c95a8115010000004746304302201c873aad22ff0ee3804099cd327bccd149cbeaceb78089d271eb939f3654edba021f56bc462fd2d5a79f0d2ead6903cd70acb3ef8d1781cbf21eee510d7efa0a3d01ffffffff040000000000000000004054a4c03d000000232102e41095f8218798053df9999ea5057ddc16b7b9b6e917b404ffaa7d52fb91fdc8ac0065cd1d000000001976a9146a1221a0cc42663bd6b3a51a08a61da155aa53a088ac80f0fa02000000001976a914bb1f665d18303a04492b15e5a53b556b88b4830d88ac00000000",
                        "txid": "af566974e351fa885d59aa7f582d440c7cc3fcfcde992a3ad22f723355ca4165",
                        "version": 1,
                        "vin": [
                            {
                                "txid": "15815ac9d813006ad1102de5113f6bf36685748252df1790d73d3225225a123b",
                                "vout": 1,
                                "scriptSig": {
                                    "hex": "46304302201c873aad22ff0ee3804099cd327bccd149cbeaceb78089d271eb939f3654edba021f56bc462fd2d5a79f0d2ead6903cd70acb3ef8d1781cbf21eee510d7efa0a3d01"
                                },
                                "sequence": 4294967295
                            }
                        ],
                        "vout": [
                            {
                                "value": 0.00000000,
                                "n": 0,
                                "scriptPubKey": {
                                    "hex": ""
                                }
                            },
                            {
                                "value": 2652.25,
                                "n": 1,
                                "scriptPubKey": {
                                    "hex": "2102e41095f8218798053df9999ea5057ddc16b7b9b6e917b404ffaa7d52fb91fdc8ac"
                                }
                            },
                            {
                                "value": 5,
                                "n": 2,
                                "scriptPubKey": {
                                    "hex": "76a9146a1221a0cc42663bd6b3a51a08a61da155aa53a088ac"
                                }
                            },
                            {
                                "value": 0.5,
                                "n": 3,
                                "scriptPubKey": {
                                    "hex": "76a914bb1f665d18303a04492b15e5a53b556b88b4830d88ac"
                                }
                            },
                        ],
                        "time": 1570007864,
                        "blocktime": 1570007864
                    }
                ]
            }
        }
    }
}
